:20000000281300206D5B0000795B00007B5B00007D5B00007F5B0000815B00000000000085
:20002000000000000000000000000000835B0000855B000000000000875B0000D10200004D
:20004000D15A00004D030000895B00008B5B00008D5B00008F5B0000915B0000935B0000AF
:20006000955B0000EF020000975B0000995B00009B5B00009D5B00009F5B0000A15B0000D5
:20008000A35B0000A55B000069110000A75B0000A95B0000AB5B0000AD5B0000AF5B0000CA
:2000A00049210000B15B0000B35B0000B55B0000B75B0000B95B0000012110F01F02914072
:2000C000DFF8C02B40B2400942F820107047012110F01F029140DFF8B02B40B2400942F8C7
:2000E0002010704740B2002809D54901DFF81C2B40B210F00F00801800F8041C04E04901DA
:20010000DFF8882B40B28154704780B5411EB1F1807F01D3012011E0401EDFF8F41A086011
:2001200007215FF0FF30FFF7DDFF0020DFF8E41A08600720DFF8581B0860002002BDDFF85B
:20014000541B08607047DFF8500B00687047C0B2062803DA102901D2012200E00022D2B28E
:20016000012212FA01F1DFF8342BC0B2242303FB002041617047C0B2062803DA102901D26F
:20018000012200E00022D2B2012212FA01F1DFF80C2BC0B2242303FB002001617047C0B225
:2001A000062803DA102901D2012200E00022D2B2012212FA01F1DFF8E42AC0B2242303FBC2
:2001C00000208161704780B5DFF8D40A0168080E00280FD1DFF8CC0A026832F070020260E8
:2001E000DFF8C40A0268D200D2080260026872F060620260080E042819D2DFF8AC0A0168CF
:2002000031F4FC510160DFF8A40A00210160DFF8A00A00210160DFF89C0A00210160DFF82B
:20022000980A00210160DFF8940A0021016000A800F0BCFD9DF80100012813D19DF800001A
:20024000002805D1DFF8640A016851F0020101609DF80000022805DADFF8540A016851F0D0
:2002600001010160DFF8580A0168DFF8580A81422DD2DFF83C0A016851F490410160DFF8AA
:20028000480A0068000410F0FE41DFF83C0A006810F07F0051EA0041DFF82C0A006810F468
:2002A000FE400143DFF8200A006810F07F000143DFF8180A0160DFF8180ADFF8181A0968C3
:2002C0000160DFF8EC09016831F49041016001BDDFF8040A0068401CDFF8FC190860DFF89F
:2002E000FC090068401CDFF8F4190860704780B5FFF729FFFFF723FFDFF8DC090068DFF8CC
:20030000E0190968401A4E281FD300200090012300220D21012000F074FD0120DFF8C41936
:200320000870DFF8B4090068DFF8B4190860DFF8B8090078002804D00020DFF8AC190870FD
:2003400003E00120DFF8A019087001BD80B5FFF7FAFEFFF7F4FEDFF890090078002804D0E4
:200360000020DFF88419087003E00120DFF87819087001BDDFF864190968DFF86029126830
:20038000521A8242F9D3704730B5ADF5177D002400F0B5FE002800F18A83DFF85019DFF88B
:2003A000502912685054DFF848190968491CDFF840291160DFF838190968FF290ADDDFF868
:2003C000340901F0DCF80020DFF8241908605FF0FF306CE30A28DBD1DFF8100900786128E3
:2003E00005D0DFF808090078412840F05A83DFF8000900680228C0F25783DFF8F0084078CD
:20040000742805D0DFF8E4084078542840F04583DFF8DC0800680328C0F24683DFF8CC0808
:2004200080782B280CD0422800F028835A2800F02C83622800F022837A2800F0268328E30A
:20044000DFF8A808C078422800F0D880462811D0522800F00681532800F09A81622800F0EB
:20046000CD80662806D0722800F0FB80732800F08F81FFE2DFF874080079522802D0722898
:2004800040F0B780DFF864084079452802D0652840F0AA80DFF854088079512802D07128C3
:2004A00040F09D80DFF84408C0793D2840F09280DFF83808007A0A2804D1DFF8380801F04C
:2004C0005EF88BE0DFF82408007A3F280AD1DFF828080268DFF824080168DFF8240801F0CB
:2004E0004EF87BE00024002500E0641CDFF8FC07E4B2205C2C2805D0DFF8F007E4B2205CBD
:200500000A28F2D1DFF8E407E4B2205C0A2804D1DFF8E00701F033F860E0DFF8E80701F03A
:2005200067F8DFF8E4170860DFF8DC070068DFF8DC17401ADFF8D817884205D3DFF8B407E2
:2005400001F01DF84AE06D1CDFF8A007E4B2EDB22919085C0A28F6D1DFF89007E4B2201854
:20056000401C01F045F8DFF8AC170860DFF8A4070068002804D1DFF87C0701F000F82DE0B8
:20058000DFF884070068DFF88C170968B0EB5100DFF8781788420BD3DFF86C070068DFF823
:2005A0007417096810EB5100DFF86C17884204D3DFF8400700F0E3FF10E06422DFF8540760
:2005C0000168DFF84407006801F0BAF8BCA000F0D6FF03E0DFF81C0700F0D1FF03E0DFF80D
:2005E000140700F0CCFF03E0DFF8080700F0C7FF03E0DFF8000700F0C2FF3EE2DFF8EC064B
:2006000000793D2828D1DFF8E4064079792804D0DFF8D8064079592807D10120DFF8C81677
:200620000870A7A000F0ABFF15E0DFF8C00640796E2804D0DFF8B40640794E2807D10020F4
:20064000DFF8A41608709EA000F099FF03E0DFF8A40600F094FF03E0DFF8980600F08FFF0E
:200660000BE2DFF888060079432802D0632840F08A80DFF878064079562801D076287DD164
:20068000DFF8680680793D2873D10724002503E0DFF8600600F073FFDFF85006E4B2205C62
:2006A0000A2806D0DFF84406E4B2201840780A2809D1DFF86806007D002834D1DFF834067F
:2006C00000F05DFF54E0DFF82406E4B2205C2428DED102A8DFF848160A680260641CDFF882
:2006E0000C06E4B2205C8DF80800641CDFF8FC05E4B2205C8DF80900641C05AACEA102A809
:2007000001F096F80598DFF81416EDB268546D1CDFF808060575EDB2152DBDDBDFF8D40550
:2007200000F02DFFB8E70021012356AADFF8EC05017DDFF8E80501F010F80100C9B2002911
:2007400004D0C9B256A800F001FD11E0002201214FF4165000F034FCDFF8C835DFF8C825C8
:20076000DFF8C81500F000FFDFF8880500F007FF03E0DFF8800500F002FF03E0DFF8740519
:2007800000F0FDFE03E0DFF86C0500F0F8FE74E1DFF858050079452802D0652840F0668178
:2007A000DFF8480540794E2808D0522800F094806E2803D0722800F08F8053E1DFF82C0552
:2007C0008079442802D0642840F08180DFF81C05C0793D2876D10120DFF854150870082443
:2007E000002528E001A8DFF84C150A680260641CDFF8F804E4B2205C8DF80400641CDFF8D2
:20080000EC04E4B2205C8DF80500641C04AA8AA101A801F00DF80498DFF80015EDB2685471
:200820006D1CDFF8F8040575EDB2152D03DBDFF8C40400F0A4FEDFF8B404E4B2205C0A281F
:2008400014D0DFF8A804E4B2201840780A280DD0DFF89804E4B2205C2428C3D0DFF89404C9
:2008600000F08DFE0020DFF8C8140870DFF8AC04007D002804D1DFF87C0400F080FE1EE0EE
:20088000DFF8AC040078002819D0002316AADFF88C04017DDFF8840400F05FFF002201218F
:2008A0004FF4165000F08CFBDFF87834DFF87824DFF8781400F058FE01A000F060FE05E0A5
:2008C0004F6B0A00DFF82C0400F059FE03E0DFF8240400F054FEC8E0DFF8100480794928E5
:2008E00002D0692840F0BA80DFF80004C079412802D0612840F0AE80DFF8F003007A4C283D
:2009000002D06C2840F0A280DFF8E003407A3D2840F09880DFF8D403807A242812D03F28C1
:2009200040F08C8010A801F04CF8109ADFF808140EA800F045FE0EA800F021FE67A000F04C
:200940001EFE7EE00120DFF8F41308700A2400250020DFF8C813087528E000A8DFF8E0138A
:200960000A680260641CDFF88403E4B2205C8DF80000641CDFF87403E4B2205C8DF80100C8
:20098000641C03AA2CA100A800F052FF0398DFF88C13EDB268546D1CDFF880030575EDB20C
:2009A000092D03DBDFF84C0300F0E9FDDFF83C03E4B2205C0A2812D0DFF83003E4B2201813
:2009C00040780A280BD0C948E4B2205C2428C4D0C84800F0D4FD0020DFF860130870DFF8C5
:2009E0005C030078002826D00020089000200CE0C0B2002802D00899090208910899C74ADB
:200A0000C0B2825C11430891401CC449097DC0B28842EDD308A800F0CCFF08A800F0D1FFD3
:200A2000089AC54906A800F0CBFD06A800F0A7FD2AA000F0A4FD04E025780000AD4800F09D
:200A40009EFD02E0AB4800F09AFD02E0A94800F096FD02E0A74800F092FD02E0A54800F03A
:200A60008EFD02E0A34800F08AFD02E0A14800F086FD02E09F4800F082FD15E0B14800F053
:200A80007EFDB148B14908600EE0B14800F077FD0AE0984800F073FD06E0964800F06FFDEB
:200AA00002E0944800F06BFD0020914908600DF5177D30BD80B5011E01290AD2A54911EBF7
:200AC000C0014968A34A12F83000FFF768FB002001E05FF0FF3002BD000000000A000000DC
:200AE00080B5FFF770FB20219B4801F0A4F89A4801F06DF94FF47A71B0FBF1F0FFF705FBC6
:200B0000002800D0FEE70121934801F094F8924801F05DF94FF47A71B0FBF1F0FFF7F5FABE
:200B2000002800D0FEE764224CF250318B4800F007FE01218A4801F016F9C820FFF71AFCE3
:200B4000002304220221052000F0A0F902210520FFF711FB002304220E21012000F096F919
:200B6000002304220E21012000F090F90E210120FFF7EDFA0120FFF7FDFB002301220E21B2
:200B8000012000F083F9002301220121022000F07DF9002304220021022000F077F90121CA
:200BA000704801F0E0F8012001F094FA002001F01BFB002201214FF4165000F001FA594B71
:200BC000594A5A4900F0D0FC012302220D21012000F05CF901200090012300220D210120F1
:200BE00000F00FF90120FFF772FA0120FFF764FA0920FFF76CFA0920FFF75EFA01BD80B516
:200C0000FFF76EFF584800F0BAFC01BD18ED00E014E000E018E000E000B5C1B001F0FAFBD0
:200C200031480078002803D00020FFF743FF09E02D480078002805D1464841684548007860
:200C4000FFF785FA27480078002816D0002025490870002301AA08214448006800F07DFDCF
:200C600001200090012300220D21012000F0C9F83F48C079401C3E49C871FFF785FB41B03A
:200C800000BD000000E100E080E200E000E400E010E000E01C6100401461004000600040EE
:200CA000FC81E00F0CA00C4020600C4040800C4044800C4058800C4060800C4078800C4054
:200CC000F081E00F00BA8A4CB481E00F342000402C400040C881E00FA80E0020AC0E0020D8
:200CE000B00E00201A0F0020800000203C0C0020B40E0020345D0000000F0020FC0E0020F9
:200D0000F45C0000440C0020B80E0020A0AB2B33C156FE03BC0E002061022A37900E002000
:200D20004C5D0000D510000093100000F31000001F0F0020505D00003C5D00001E0F00209E
:200D4000545D0000D85C00000400FA050CED00E0905C0000445D000020000400A0BDA533EC
:200D600000C2020000120200345C00006C0000206400002080B5FFF742FF002001F034FA50
:200D800001F067FAFFF748FFF7E750F8041B61B150F8042BD30744BFA9F101039A180023A6
:200DA000091F42F8043BFAD1EFE770470D49096811F00F0189000C4A1268C2F3811211436D
:200DC00081700949096811F03F0141700749096811F0F001064A1268C2F303121143017061
:200DE00070470000E4FF0FE0E0FF0FE0E8FF0FE0ECFF0FE0890011EB401010F184400260F0
:200E00007047F8B50D001C00C0B2062803DA102D01D2012100E00021C9B2082D10D2554965
:200E200009680F232E00F6B2B600B3409943C0B22B00DBB29B00984008434E49086010E0DD
:200E4000B5F108014C4B1B680F260F00FFB2BF00BE40B343C0B2C9B28900884018434649F9
:200E60000860D2B229004548FFF7C4FFE4B2220029004348FFF7BEFF0120A84041490860FD
:200E8000069A29004048FFF7B5FFF1BD70B4C0B2062803DA102901D2012400E00024E4B23D
:200EA000D2B2002A12D0002B08D001248C40304DC0B2242606FB00552C6107E001248C40BA
:200EC0002B4DC0B2242606FB00556C61082919D2274CC0B2242505FB004464680F250E001F
:200EE000F6B2B600B540AC43D2B20D00EDB2AD0012FA05F52C431E4DC0B2242606FB0055E1
:200F00006C601AE01A4CC0B2242505FB0044A4680F250E00083EF6B2B600B540AC43D2B24C
:200F20000D00083DEDB2AD0012FA05F52C43104DC0B2242606FB0055AC60D2B2002A14D190
:200F4000002B09D0012212FA01F1094AC0B2242303FB0020016108E0012212FA01F1044A89
:200F6000C0B2242303FB0020416170BC704700000060004000610040046100400861004086
:200F80000C6100401C61004010610040012110F01F029140864A40B2400942F820107047F6
:200FA000012110F01F029140824A40B2400942F82010704741637047826B114381637047BE
:200FC0007FB504000D00160000A87B49102201F029FAB4F5165F0AD90621784800F0ADFF80
:200FE0000421774800F027FE7648019009E00221724800F0A2FF0121714800F01CFE00204D
:20100000019001216E4800F0AEFE00208DF8000002946D4801F0A8FA00A96B4801F07AFA87
:201020000123042204210320FFF730FF042067490870EDB2002D19D0012301220521032068
:20104000FFF724FF04216048FFF7B4FF1220FFF7A7FF04215C48FFF7AFFF1220FFF796FF09
:201060005A48007850F0010058490870F6B2002E05D1012056490870534800F00AF85448EF
:20108000067052480178504801F022FA4E4804B070BD80B54E48007800281AD04B4800784B
:2010A000C00709D503204B490860CA204A49086005204949086008E00220464908604820FF
:2010C000454908600420444908604FF47A7001F0DDF801BD414800680007FBD53C4800788C
:2010E000002805D0CA203C490860002039490860704780B5C9B2344801F060FA01BD3848A6
:20110000006838490968884202D15FF0FF301CE0354833490968085C31490968491C304AC6
:2011200011602F4909688C2902D100212C4A11602B4909682B4A1268914206D10021294AB3
:20114000116028490968264A1160704770B504000D00002604E0315D1B4801F02FFA761CC7
:20116000EDB2AE42F7DB70BD10B52048046820480068002804D02000C0B21D490968884744
:20118000184800688C2809DA1748164909680C5414480068401C1349086008E011480068D4
:2011A0000F490968884202D000200E49086010BD00E100E080E200E0245D00000300120085
:2011C00040051400F0B31A0000400840230F0020220F0020544008400440084008400840D6
:2011E000F00E0020F40E00203C0D00201C400840EC0E0020F0B40024012500E04D43B0FB7F
:20120000F5F68E42FAD2002D22D0B0FBF5F6B0FBF5F705FB1700B5FBF1F5002C03D1012E1F
:2012200001DA002DEFD11F007B1C0A2E02DA5FF0300C08E0002A02D05FF0410C01E05FF0E1
:20124000610CBCF10A0C1CEB06063E70641CDAE700201870F0BC704780B5002803D540429A
:201260002D220A70491C0B0000220A21FFF7C2FF01BDF0B40024012500E04D43B0FBF5F67F
:201280008E42FAD2002D22D0B0FBF5F6B0FBF5F705FB1700B5FBF1F5002C03D1012E01DAAF
:2012A000002DEFD11F007B1C0A2E02DA5FF0300C08E0002A02D05FF0410C01E05FF0610CCF
:2012C000BCF10A0C1CEB06063E70641CDAE700201870F0BC704780B5002803D540422D2238
:2012E0000A70491C0B0000220A21FFF7C2FF01BDC0B2B0F130010A2902D2C0B2303811E02C
:20130000C0B2B0F16101062902D2C0B2573809E0C0B2B0F14101062902D2C0B2373801E051
:201320005FF0FF3070472DE9F84304000D0016001F00D5F800805FF0000905E006FB090944
:2013400098F8004018F101082000C0B2FFF7D0FF002801D48642F1DAC5F80080C7F8009038
:201360002000C0B2BDE8F2832DE9F04104000D009046DBB2002B01D0302600E02026069FE9
:20138000380001E0B8F101080100481C0978002902D0B8F1010FF5DA4046B0F101080128C0
:2013A00007DB3100C9B22000A847F5E7C9B22000A84739787F1C0800C0B20028F6D1BDE8D0
:2013C000F0810268531C0360117070472DE9F44185B004000D001F0003E00100C9B22000F9
:2013E000A847059800780599491C05910100C9B200293ED0C0B22528EFD100265FF00008A1
:2014000000200190059800780599491C0591C0B2302805D1059800780599491C05910126F8
:20142000C0B2B0F130010A2905D201AB0A2205A9C0B2FFF778FFC0B26C2806D10598007807
:201440000599491C05915FF00108C0B2010000290FD0252900F08280582945D063296DD081
:20146000642927D073296FD0752905D078293BD079E006B0BDE8F0815FFA88F8B8F1000F38
:2014800007D038683F1D02AB00220A21FFF7B2FE06E038683F1D02AB00220A21FFF7E9FE20
:2014A00002A800903300DBB2019A29002000FFF75BFF96E75FFA88F8B8F1000F05D038687B
:2014C0003F1D02A9FFF7C8FE04E038683F1D02A9FFF701FF02A800903300DBB2019A29000A
:2014E0002000FFF741FF7CE75FFA88F8B8F1000F0DD0C0B2582801D1012200E0002238683C
:201500003F1D02ABD2B21021FFF774FE0CE0C0B2582801D1012200E0002238683F1D02AB27
:20152000D2B21021FFF7A5FE02A800903300DBB2019A29002000FFF717FF52E739683F1D3D
:20154000C9B22000A8474CE738683F1D00900023019A29002000FFF707FF42E70100C9B29A
:201560002000A8473DE73CE710B41C4C20601C4801601C4802601C48036010BC70470EB4D2
:2015800030B5040003AD17480068002804D0134800681449096888472B0022001048016881
:2015A0000E480068FFF712FF0F480068002804D00A4800680C490968884730BC5DF810FB10
:2015C0000DB400B502AB0A00084901A8FFF7FEFE002101A8FFF7F5FE5DF810FBC00E0020F1
:2015E000C40E0020C80E0020CC0E0020C31300000A22002101F094B82DE9F04784B0060022
:201600000F009046994601F084FC3220FEF7B2FE01F0F3FC01F0C4FC3220FEF7ABFE01F02C
:20162000D4FC3220FEF7A6FE5FF0000A0C9C0D9D48E076480068401E7549096818EB010164
:20164000B8FBF0F200FB1210714908606F480068801E6F49096888420CDA6C480068401EA6
:201660006B4909686A4A126892FBF0F200FB1210674908606748006867490968654A126812
:20168000891A624A1268B1FBF2F1614A1268521C02FB01002900C9B202912100C9B20191FC
:2016A000FFB2009733001E0001F02CFE020033004946C9B2404601F0A9FA6420FEF75AFE4C
:2016C0001AF1010ABAF1030FB3DB01F08AFC002004B0BDE8F0872DE9F04184B004000D00B6
:2016E00016001F005FF0000801F013FC0A20FEF741FE01F082FC01F068FC0A20FEF73AFEE5
:2017000001F04EFC0A20FEF735FE0C980290EDB201950A9800903B00320021000C001500F0
:201720001E000B9801F0E4FD33002A00210001F00EFB804601F055FC404604B0BDE8F08146
:2017400010B4B0EB5103334C236010EB5100324908602E48026010BC70472DE9F0418AB0C9
:2017600004000D001600984600F054FE2B4F04A800F027F95FFA88F8B8F1000F0DD100205D
:2017800001900020009026480378049A2900C9B22000FFF731FF002034E05FFA88F8B8F1E1
:2017A000010F2ED15FF0000801E018F10108B8F1030F24DA012001900120009018480378D9
:2017C000049A2900C9B22000FFF716FF4FF47A60FEF7D0FD04980290019712480090124BB0
:2017E000124AFA213000FFF776FFC0B20028DCD00B490978491C0A4A1170C0B202E000200E
:2018000000E000200AB0BDE8F0810000040F0020080F0020FC0E0020000F00204018D833D2
:20182000240F00201D0F00201C0F00201B0F00200DB400B582B004A800900A4600AB03A9E9
:20184000034878440A3001F08BFD06BC5DF810FB83010000DFF800F02B000020DFF800F04F
:20186000010000204048006850F001003E49086041F671303D4908603B48006840084000EE
:201880003949086070473848006850F0010036490860002035490860334800684008400026
:2018A00031490860704730B400220B00591E002B12D00468001D202302E0520864085B1E0D
:2018C000002BF2D094EA0205ED07F6D5520882F4044292F00802F1E7100030BC70472DE994
:2018E000F84304000E0015005FF0FF370420B5FBF0F101FB1051002900D02D1DAD082900CE
:201900003000FFF7D0FF8046A14604E0D9F80000074019F101092819401C8145F6D372B6C1
:20192000FFF7A0FF17F1010F02D02000FFF792FF41462000FFF792FF5FF0000907E0241DD3
:2019400031682000FFF78AFF361D19F10109A945F5D3054800684008400003490860FFF74B
:2019600092FF62B6BDE8F18308000C403C000C4070B50B0011001C000422B1FBF2F505FBB3
:201980001215002D00D0091D89080568001D002204E006682660001D241D521C8A42F8D385
:2019A0001800FFF780FF854201D0002000E0012070BD80B5182201005FF07E60FFF78FFF93
:2019C00001BD80B5182201005FF07E60FFF7D0FF02BD03681AB95A1E02600846704719787A
:2019E00011B94FF0FF307047591C016018787047890011EB401010F1844002607047DFF851
:201A00007006006810F007010029012903D9891E012904D906E0012161F3020002E003219F
:201A200061F30200DFF8481608607047002804D0B0F5004F01D8012100E00021C9B2B0FAEB
:201A400080F0D0F11F007047012111FA00F07047DFF81C160968DFF81C26821ADFF8183657
:201A60009A420BD211F00702921E012A03D8032262F3020102E0012262F30201DFF8F42523
:201A800090420AD211F00700801E012803D8022060F3020101E0C908C900DFF8D4050160EA
:201AA0007047DFF8D805704780B5DFF8D40500F0F4F9C0B2072804D0082805D102F002FAD9
:201AC00003E0FFF7EEFF00E0002002BD80B5002801D0012801D1012100E00021C9B2DFF8E3
:201AE000A4150968C0B240000A00C24012F0030000280FD0022806D002D3032806D00BE031
:201B000002F027FA09E002F027FA06E002F0CDF9400802E0002000E0002002BDDFF86815BB
:201B20000968C90704D4DFF8641509680142FAD17047B0F5801F01D2012200E00022D2B246
:201B4000C9B2002906D002291DD017D3042924D01ED327E00121DFF838251160DFF8341509
:201B600008600820DFF830150860DFF8300500684004FAD4DFF81C05006870470321DFF8B9
:201B800010251160EAE70021DFF804251160E5E70221DFF8FC241160E0E70421DFF8F0240E
:201BA0001160DBE70020E8E780B5C0F30311012906D03ED3032913D00AD304292BD038E0CA
:201BC000DFF8DC04006810F00F00FFF73DFF31E0DFF8D004006810F00F00FFF735FF29E03F
:201BE000DFF8C414884204D0DFF8C014884208D00FE0DFF8BC04006810F00F00FFF724FF35
:201C000008E0DFF8AC040068C0F30310FFF71CFF00E001200EE0DFF89C14884207D1DFF827
:201C20009804006810F00300FFF70EFF00E0012000E0012002BD10B50C00C0F30311012917
:201C400007D0C0F08F80032935D019D304296DD088E0002C04D0B4F5007F01D8012000E0FD
:201C60000020C0B22000FFF7E1FE0400DFF830040068000900012043DFF82414086071E031
:201C8000B4F5007F01D8012000E00020C0B2FFF7B6FE2000FFF7CAFE0400DFF808040068D9
:201CA000000900012043DFF8FC13086002F0FDF8FFF7CEFE56E0DFF8F013884204D0DFF83B
:201CC000EC13884218D030E0B4F5004F01D8012000E00020C0B20420FFF720FF2000FFF790
:201CE000A5FE0400DFF8C8030068000900012043DFF8BC13086018E0B4F5004F01D80120CE
:201D000000E00020C0B20420FFF708FF2000FFF78DFE0400DFF89803006830F0F00050EA67
:201D20000410DFF88C130860FFE71BE0DFF88413884216D1092C01D2012000E00020C0B216
:201D40004020FFF7EBFE2000FFF770FE0400DFF868030068800880002043DFF85C130860F9
:201D6000FFE7FFE710BD70B50C000021C0F30322D2B2012A09D029D3032A19D015D3052AEF
:201D80001DD018D3062A1ED020E0DFF81453C0F30436002902D00800FFF7C0FEE4B22200B3
:201DA00031002800FFF724FE70BDDFF81053EEE7DFF80C53EBE7DFF80C530121E7E7DFF871
:201DC00008531021E3E7DFF80453E0E7ECE780B510F4781000281BD0B0F5003F1BD0B0F59D
:201DE000802F23D0B0F5C02F23D0B0F5002F24D0B0F5202F2DD0B0F5901F36D0B0F5A01F43
:201E000037D0B0F5C01F40D0B0F5D01F40D042E002F058F840E002F055F8DFF884120968E2
:201E200011F00F0201000800D04035E002F03DF832E00020FFF74AFE2EE00020FFF746FE63
:201E4000DFF86C12096811F00F0201000800D04022E00020FFF73AFEDFF854120968C1F3DF
:201E600003120100D140080016E00120FFF72EFE12E00120FFF72AFEDFF83C12096811F032
:201E8000030201000800D04006E0FFF70DFE03E0FFF707FE00E0002002BD012110F00F006F
:201EA000012806D045D303282DD018D304283ED03FE0DFF8E801006810F47050B0F5006F9F
:201EC00009D0B0F5805F04D0B0F5005F05D1022104E0032102E0042100E005212AE0DFF8DE
:201EE000A401006810F00300012804D009D3032805D002D305E0032104E0022102E006210B
:201F000000E0012116E0DFF87C01006810F00C00042804D0082804D00C2804D005E00321EC
:201F200004E0022102E0062100E0012102E0072100E000210800C0B2704710B50324032341
:201F400010F00F042000401E03D0401E012827D95AE0C9B2022906D021D3042919D015D3EE
:201F6000052919D01BE004240023012201211800C0B200F04AF8FFF742FD4748046002F0E9
:201F80009EF801F092FFFFF763FD3DE003240123EBE702240223E8E701240323E5E733E055
:201FA000C9B2012906D002290FD0032914D0062919D01FE00020022C1DD1324909688908BC
:201FC000890008432F4908601DE001220121002000F01BF80220EEE701220121012000F09B
:201FE00014F80120E7E7012202213548FFF700FD0320E0E708E02349096831F00C0151EA18
:20200000800020490860FFE710BD10B5C0B2002821D0022813D01AD3042814D022D201234A
:2020200002240220C9B200291DD029490B60D2B2002A1AD019490968014216D1FAE704234D
:2020400008240820EEE7102320242020EAE7402380248020E6E74FF480734FF400744FF42B
:202060000070DFE703E01A48046002F028F810BD04000C400124F4000024F400809FD5002D
:202080000400180028800C4054800C4050800C4018800C401C800C4024800C402C800C4040
:2020A00008800C4004800C403004080030140A0068800C404005140070800C4044800C4019
:2020C00040800C4058800C4060800C4078800C4020800C4080B5C0B2002809D00221094858
:2020E000FFF72BFF012201210020FFF78EFF04E0012201210120FFF788FF01210248FFF7AF
:2021000032FE01BD0200060000230400012110F01F029140744A40B2400942F82010704774
:202120007249086070477249096831EA00007049086070476E49096808436D49086070475E
:2021400001206D490870704780B56C48006880070DD567480068800706D569480068002805
:2021600002D06748006880470220FFF7D9FF6348006840070DD55E480068400706D56148AA
:202180000068002802D05F48006880470420FFF7C7FF5A480068C00725D55B480068401CF5
:2021A000594908600120FFF7BBFF51480068C00719D556480068002815D055480068401C1A
:2021C000534908605248006850490968B0EB512F09D34F4800684D490968B0EB51204C4951
:2021E0000860FFF7ADFF01BD10B5040001214948FFF721FD01214748FFF7B5FD200000F01E
:202200003FF800F0E1F8444800F0C7F87FF07F41002000F099F84FF40041012000F094F892
:202220001820FFF773FF012000F0A8F8002031490870002030490870002034490860002005
:20224000334908600120FFF76BFF0120FFF772FF10BD80B50220FFF763FF0420FFF760FF9C
:202260000220FFF767FF0420FFF764FF002001F0F9FE0220FFF757FF0420FFF754FF01BDC2
:202280001F4909681E4A10600800704738B504002248006800280DD12148FFF798FD1F49A9
:2022A00008601F48FFF780FC1C490968B1FBF0F01A49086019480268002300251000190074
:2022C000A4FB002304FB013305FB003310001900144A002301F010FF02000B0003211000EB
:2022E000FFF727FC31BD000000E100E0180008401C000840210F0020200F0020100008405B
:20230000D40E0020D80E0020DC0E0020E40E0020E00E002030040800D00E0020E80E00203B
:202320001081020040420F00890011EB401010F184400260704730490968C90703D42F49BD
:2023400009680142FBD1704738B50C00022804D214F07F4F01D1012100E00021C9B20028E3
:2023600002D0012806D008E0254D0220FFF7E3FF2C6031BD234D0420F8E7FAE710B50400A1
:202380000120FFF7D8FFE4B2220000211E48FFF7CBFF0120FFF7CFFF10BD10B50178002937
:2023A00001D0012400E000244178002901D054F002048078002801D054F004040120FFF7D2
:2023C000BAFF1148046010BD80B500200A49086000200D4908600020094908600020094980
:2023E00008600020094908600020094908600720FFF7A1FF01BD0000200008402400084072
:20240000080008400C000840000008401C0008401800084080B50020FFF7B0FF0120FFF7FB
:20242000ADFF01BD103A07D330B4B1E83810103AA0E83810F9D230BC530724BFB1E808108A
:20244000A0E8081044BF51F8043B40F8043BD20724BF31F8022B20F8022B44BF0B7803708A
:202460007047083A07D3B1E80810083A40F8043B40F804CBF7D25307E4E70000026CD207E3
:2024800002D4426C0A42FCD1704738B504001500002906D1474884420ED14748FFF797FC96
:2024A00001004801B0FBF5F5203DED0047F6F970854202D2012001E009E00020C0B247F6F8
:2024C000F870054004212000FFF7D8FFE56031BD38B504003748844201D1012000E00020E1
:2024E000C0B2C9B2CD4315F005056D00C9B20D4302212000FFF7C2FF656031BDC9B2002947
:2025000005D0416C0029FCD10121016401E000210164704738B504000D002648844201D19A
:20252000012000E00020C0B202212000FFF7A6FF0A20606001212000FFF7E0FF206830F081
:202540001C00297B0843697B0843A97B08432060AA6869682000FFF798FF28786060002141
:202560002000FFF7CBFF31BD10B504001148844201D1012000E00020C0B201212000FFF708
:20258000BDFFEA206060002020600020E06000202061002060610020A06340F2F9706063B2
:2025A0000020E0630020606500212000FFF7A6FF10BD0000004008404005140038B5040058
:2025C0000D00A068C006FCD540212000FFF756FFEDB2A56231BD00002DE9F04F85B004461B
:2025E0001E000D4690461CBF00203060A14601E009F1010999F80000A0F109010529F7D319
:202600002028F5D02D2816BF2B2819F8017B2B27B8F1000F57D4B8F1010F54D0B8F1250FB4
:2026200051DAB8F1010F0DDBB8F1100F04BF99F80000302802BF99F8010040F02000782817
:2026400014D10EE099F80000302818BF4FF00A080CD199F8010040F02000782804D14FF023
:20266000100809F1020901E04FF00808CDF8109001E009F1010999F800003028F9D00FF210
:20268000A40B4FF0000ACDF80C908DF808B00AE09DF80810CDF804A0401AC0B2009008FB45
:2026A0000A0A09F1010999F80010A1F141001A2838BF20314246584601F0B8FD0028E7D158
:2026C0000498484503D105B12C60002025E00FF27C01039818F80110A9EB0000401A14D486
:2026E000012808DA0098BAEB000004D30199B0FBF8F0884209D001F0C5FD222101600EB1D5
:20270000012030604FF0FF3A03E02D2F08BFCAF1000A0DB1C5F80090504605B0BDE8F08F4B
:20272000002359E7303132333435363738396162636465666768696A6B6C6D6E6F707172BE
:20274000737475767778797A0000000000002115110E0D0C0B0B0A0A0909090909080808E8
:202760000808080807070707070707070707070707000000012110F01F029140DFF8202BA8
:2027800040B2400942F820107047012110F01F029140DFF8102B40B2400942F8201070475B
:2027A000C0B2062803DA102901D2012200E00022D2B2012212FA01F1DFF8EC2AC0B2242320
:2027C00003FB002041617047C0B2062803DA102901D2012200E00022D2B2012212FA01F12F
:2027E000DFF8C42AC0B2242303FB00200161704710B40AE0DFF8B43A0C7894EA106453F8F0
:20280000243093EA0020491C521ED2B2002AF1D110BC704780B50A00D2B201005FF0FF30BD
:20282000FFF7E6FF5FF0FF31484002BD2DE9F04786B005000E00170098465FF000090021F3
:2028400000220020002300205FF0000A00A8DFF8601A1822FFF7E6FDB8F1000F04D15FF0B2
:202860000F0A5FF00A0802E000A818F800A00F9CE4B2002C0BD1AA20DFF8381A0870F020E0
:20288000DFF8301A48709920DFF8281A8870E4B2012C0BD1CC20DFF81C1A0870DD20DFF8B1
:2028A000141A4870EE20DFF80C1A8870E4B2002C03D1DFF8040AC5702D0ADFF8FC09857077
:2028C0002D0ADFF8F40945702D0ADFF8EC0905702D0A002005E0C15DDFF8DC298218D170AF
:2028E000401C404508DAE4B2002CF4D1C15DDFF8C82982181171F3E7E4B2012C08D15FFABD
:202900008AFAF6B21AEB0610DFF8B019087003E0DFF8A80980F800A0DFF89C090078DFF80A
:202920009C194870DFF890094078DFF890198870DFF884098078DFF88419C870E4B2002CC0
:2029400005D1DFF87409C078DFF870190871002005E0C15DDFF8642982181171401C4045B8
:2029600008DAE4B2002CF4D1C15DDFF8502982185171F3E7E4B2002C1FD118F10501C9B20E
:20298000DFF83809FFF746FFDFF82C1918EB0101C871000ADFF8201918EB01018871000A68
:2029A000DFF8141918EB01014871000ADFF8081918EB01010871000A21E0E4B2012C1ED118
:2029C00018F10401C9B2DFF8F408FFF723FFDFF8E81818EB01018871000ADFF8DC1818EBD6
:2029E00001014871000ADFF8D01818EB01010871000ADFF8C41818EB0101C870000A0021B0
:202A000007E00020DFF8B82809F8020019F10109491CC9B23029F4DB002107E00020DFF8DA
:202A2000A02809F8020019F10109491CC9B20C29F4DB002107E00020DFF8842809F8020025
:202A400019F10109491CC9B20C2908DAC9B20029F1D10120DFF8682809F80200F0E7002281
:202A600000E0521CD2B2032A2EDADFF84808D2B2135C00200CE00025DFF8447809F8075019
:202A800019F10109491CC9B20C29F4DB5B00401C0828E6DA190615D4002107E00025DFF88B
:202AA000207809F8075019F10109491CC9B20C29ECDAC9B20029F1D10125DFF8047809F857
:202AC0000750F0E70021DEE7E4B2012C30D15FFA8AFAF6B21AEB061300220CE00020DFF876
:202AE000E05709F8050019F10109491CC9B20C29F4DB5B00521CD2B2082A46DA180615D4FB
:202B0000002107E00020DFF8B85709F8050019F10109491CC9B20C29EBDAC9B20029F1D14D
:202B20000120DFF89C5709F80500F0E70021DDE7534600220CE00020DFF8845709F8050069
:202B400019F10109491CC9B20C29F4DB5B00521CD2B2042A19DA180715D4002107E00020DF
:202B6000DFF85C5709F8050019F10109491CC9B20C29EBDAC9B20029F1D10120DFF84057E2
:202B800009F80500F0E70021DDE7002200E0521CE4B2002C01D0072000E00820D2B218EBBA
:202BA000000082422EDADFF81007D2B2135C00200CE00025DFF8086709F8065019F1010986
:202BC000491CC9B20C29F4DB5B00401C0828DEDA190615D4002107E00025DFF8E46609F81B
:202BE000065019F10109491CC9B20C29ECDAC9B20029F1D10125DFF8C86609F80650F0E7D1
:202C00000021DEE7484606B0BDE8F0872DE9F04F83B004000D0093461E00A5275FF00008BB
:202C2000002000225FF000095FF0000A00F045FA0021584600F01AFAC820FDF79BFB0E9897
:202C400001900D9800900C9B32002900C9B22000FFF7ECFD082190FBF1F0471C3900C9B286
:202C6000322000F0FEFA381250F04001C9B2312000F0F7FA022000F0E6F90A20FDF77AFB1E
:202C80005FF0000A5FF0000814E0C9B2DFF830261AF80220824051181AF1010A401E19F10B
:202CA0000109B9F1080FF0DBC9B2002000F0D9FA18F10108B8F1320F04DA002107205FF0AF
:202CC0000009EEE7032000F0BEF95FF0000912E0C9B2DFF8EC351AF80330834059181AF10B
:202CE000010A401E521C082AF2DBC9B2002000F0B8FA19F10109B7F1320081450FDA3F20C5
:202D000000F0BFFA05E00120FDF734FB3F2000F0B8FA8006F7D4002107200022E3E701203A
:202D2000FDF728FB3F2000F0ACFA5FF0000804E03F2000F0A6FA18F101080007F8D5062051
:202D400000F09FFA012000F07EF9BDE8F78F2DE9F04780460C0015001E005FF0000A099FE4
:202D60003900C9B2222000F07CFA00F028FA0021404600F07BF90A20FDF7FCFADFF84405A6
:202D8000D0F80080DDF82090FFE7002700210D2000F067FA042000F056F91420FDF7EAFA4B
:202DA000052000F050F93220FDF7E4FA1B2000F068FA30700020DFF81015087008E0322096
:202DC000FDF7D8FA122000F05CFADFF8FC140870DFF8F0040068B0EB0800DFF8F0148842DB
:202DE00004D2DFF8E4040078C006E8D5DFF8D8040078C0061CD50020DFF8CC140870DFF83B
:202E0000C8040078C021084216D1DFF8B8040068B0EB0800DFF8B41488420DD2122000F054
:202E200030FADFF8A41408706420FDF7A3FAE6E70020DFF894140870DFF88C040078400643
:202E400042D51A2000F01DFA2870192000F019FA89F80000132000F014FA07005FF0000A34
:202E600006E0002000F00DFA0AF804001AF1010ABA45F6DB002000F0E6F80A20FDF77AFAE9
:202E8000012000F0E0F80A98002807D003220AA9200001F0FDF900287FF477AFDFF83004FD
:202EA0000068401CDFF828140860DFF81C040078800604D50120DFF81C14086019E000205C
:202EC000DFF81014086014E0DFF8FC030078000606D5DFF804040068401CDFF8FC1308607B
:202EE000DFF8E4030078800603D50120DFF8E4130860FF21122000F0B4F9122000F0C1F91C
:202F0000DFF8C4130870012000F09DF83800BDE8F087F8B5DFF8C4430121DFF8C403FEF751
:202F200022FF4FF48060606140F2014020604FF44060E0600020E0640F2060651520E060A9
:202F4000206850F480302060042201250426042741F6F970A0640023D2B20A210420FDF746
:202F600095FF00232A00D2B20B210420FDF78EFF00233200D2B20C210420FDF787FF002354
:202F80003A00D2B20D210420FDF780FF0320FFF7FCFB0420FFF7F9FB0320FFF7EBFBF1BDE3
:202FA00080B5002304220E210120FDF76FFF0E210120FFF7F5FB0120FDF7DCF9002301227B
:202FC0000E210120FDF762FF01BD80B50023042202210520FDF75AFF02210520FFF7F4FB4E
:202FE00001BD80B50023042202210520FDF74EFF02210520FFF7D4FB01BD80B500230422C3
:2030000002210520FDF742FF01BDB4490A69120600D5C869C0B2704710B4B04A002302E0FB
:20302000002454635B1C8B4208DA14696406FCD50028F5D004785463401CF3E71069800682
:20304000FCD510BC704738B504000025012000F018F9050015F0F80525430120FDF78AF9DD
:203060002900C9B2012000F0FCF831BD38B50C000021002501F03EF900229A4B01F062F9FF
:203080000022994B01F08AFA01F05AFB0100080001F09EFB05006519290C2C0AC9B206204D
:2030A00000F0DFF82100C9B2072000F0DAF82900C9B2082000F0D5F831BD80B50020FFF702
:2030C000C2FF0A20FDF756F919214B2000F0C9F84B2000F0D6F8854908700021012000F0CB
:2030E000C0F8012000F0CDF8804908700120FDF741F90521242000F0B4F86821022000F011
:20310000B0F82A21032000F0ACF80B215D2000F0A8F80021042000F0A4F80521052000F0C0
:20312000A0F8D921062000F09CF83321072000F098F83321082000F094F8FF21092000F027
:2031400090F800210B2000F08CF80021252000F088F80221262000F084F80021272000F024
:2031600080F80021302000F07CF84021312000F078F83221322000F074F80421362000F084
:2031800070F807214D2000F06CF83521402000F068F88021412000F064F8322000F071F8DF
:2031A0005249087051480078504908700120FFF74AFF012000F065F84C49087001BD80B50C
:2031C0000020FFF740FF0A20FDF7D4F88021012000F047F8FF21402000F043F8F0214120A2
:2031E00000F03FF80120FDF7C5F819214B2000F038F84B2000F045F83C490870FF21092033
:2032000000F02FF807214D2000F02BF800210B2000F027F874211D2000F023F8C7211E2091
:2032200000F01FF80C21262000F01BF8FF211F2000F017F80021202000F013F808212120ED
:2032400000F00FF8FA21232000F00BF80021242000F007F80120FDF78DF80120FFF7F3FE30
:2032600001BD80B550F080008DF800008DF80110022100A8FFF7D0FEFFF7C7FEFFF7C5FE7D
:2032800001BD80B5010000208DF80010022100A8FFF7C2FEFFF7B9FEFFF7B7FEC0B202BD7B
:2032A00080E100E080E200E000600040D05600000C5D000078000020C80D00202C0E002075
:2032C00084000020AC0E0020250F0020905F0100140F00200C0F0020100F002000C000406F
:2032E0000002020080847E4100002041260F0020002840F10980F446404200F005F850F086
:2033000000406047002800BF0AD0B0FA80F18840D1F19D01C905020672F1004241EB1020EB
:203320007047000003460846C2680169521C491E00290161C26003D4006801220021184747
:203340004FF0FF307047034608461146C268521E11F1010FC26002D000680022184770471A
:203360002DE9F04788B0044600914FF0FF35186801902E460020039002920FF61C370FF651
:2033800010386FF0004902E00298401C0290DDF808A09AF80000A0F10903052B09D32028D3
:2033A00007D0F0B9002EB8BF0026304608B0BDE8F0870398401C0390012200980021A0472B
:2033C000A0F109010529F4D32028F2D00399491E10F1010F0391D7D0014600980022A0471C
:2033E000D2E725280BD10AF10100029000782A2816D10298401C0290401E007811E00398C2
:20340000401C0390012200980021A0479AF800108842B9D0024600A92046FFF794FFC1E77D
:2034200000208DF81C00002005900AE00599494505D001EB810302EB430130390591401C2F
:20344000029002980278A2F130010A29EED306950178404601F0CEF920B10298401C029063
:20346000401E00788DF81D009DF81D00682801BF02990A78682A622006D06C2802BF0299DB
:2034800008786C2804D171208DF81D00481C029002980178384601F0ADF9B0B90398401C92
:2034A0000390012200980021A047A0F109010529F4D32028F2D00399491E10F1010F039174
:2034C00003D0014600980022A04700A9204600F010F8012803DA002E3FF568AF65E7002E31
:2034E0009DF81E0048BF002600283FF44DAF761C4AE770B505460C460020A077A068007859
:2035000025385CD01C3823D0001F022820D913381AD0C01E6AD0801F1AD0801E12D0401EE5
:2035200012D0401E022813D9001F0DD0401F13D0401E012808D9001F3FD0801E04D0C01E11
:2035400002D059E0002253E02846BDE8704039E12846BDE8704033E2207F002839D1607FA6
:20356000622808D0682818D06A280CD06C281CD0712808D019E06068606050F8041B60606A
:20358000E068087025E06068606050F8042B6060E068C117C2E900011BE06068606050F810
:2035A000041B6060E068088013E06068606050F8041B6060E06808600BE0012218E0E068BC
:2035C000401CE060012220680021A8470646252E01D1012070BD324621462846FFF7B3FEE1
:2035E00016F1010F08D14FF0FF3070BD4FF0FF322846BDE8704001E0002070BD2DE9F04F8A
:2036000017460025002F83B080460E464FF0000927D5B068401CB06000785E2806D1B068F7
:20362000401CB060401E0078019000E00195B46820785D280CBF601C20465D2101F0DAF81A
:20364000002800F0B680011B0091B0600098032807DB821E2D21601C00F0E8FD08B14FF083
:2036600001097069012804DA002F14BF6FF0004001203061307F68B97068706050F804AB9E
:20368000706007E00AF801BB0120B077B069401EB06102253069401E3061F06813D4401C9B
:2036A000F060012230680021C04783461BF1010F69D0012F0CDBABF10900052863D3BBF1EE
:2036C000200F58D15FE0401CF0604FF0FF3B5AE0002F50D5B9F1000F0FD10198009A0028AC
:2036E0005946204604D100F0A1FD00284BD042E000F09CFD002846D13DE00199009A0029BB
:20370000C0B2214624D107E00B789842A4BF8B78834230DAC91CD21E032A09D34B782D2B69
:20372000F2D011F8013B834218BF521EF4D122E04AB311F8013B834218BF521EF8D11AE09E
:203740000B789842A4BF8B7883421CDAC91CD21E032A0ED34B782D2BF2D011F8013B834221
:2037600018BF521EF4D10EE011F8013B83420AD0521E002AF8D1307F00288AD1B069002895
:203780007FF480AF01255A4631464046FFF7DBFD0FB1022D09D0022D10D0E80702D41BF14E
:2037A000010F06D14FF0FF3009E0307F30B9B06908B9002003E000208AF80000012003B0E0
:2037C000BDE8F08F2DE9F0430C46804660690128B8BF6FF00040206189B04046FFF7A2FD87
:2037E00005462B2D18BF2D2D0DF1000908D18DF8005021464046FFF795FD0DF10109054678
:20380000A06800780027642814BF75280A260DD0692808BF002609D06F2808BF082605D040
:2038200070281ABF40F0200078281026302D19D121464046FFF776FD054645F0200001278C
:20384000C0B278280BD1002E18BF102E13D121464046FFF767FD1026054600270BE056B96A
:20386000082608E006BB0A261EE0206801220021C04705460127302D0BD12069411EE06894
:203880002161401C0029E060EFD54FF0FF35012700E04FB1302009F8010B05E020680122B5
:2038A0000021C0470546012715F1010F23D0E9B26129A8BF573909DA4129A8BF373905DA45
:2038C000A1F130020A2A34BF3039FF21C9B2F0B2814210D20DF11F00814538BF09F8015B7B
:2038E0002069411EE0682161401C0029E060D5D54FF0FF3501272A4621464046FFF723FD99
:2039000047B900A881450ABF15F1010F00204FF0FF3052E0002089F80000207F00284BD116
:20392000A0680078642818BF692807D13246002100A800F0B9FF0122A2770AE03246002193
:2039400000A801F063F80122A277A2681278702A2CD0627F622A0CD0682A19D06A2A0FD0D6
:203960006C2A1CD0712A0BD0742A18BF7A2A16D01CE06268626052F8043B626018701BE0FA
:203980006268626052F8043B6260C3E9000113E06268626052F8043B626018800CE062688B
:2039A000626052F8043B6260186005E06268626052F8043B62601860012009B0BDE8F0835C
:2039C0002DE9F04F0C46814660690128B8BF6FF0004020610025484693B0FFF7A3FC074618
:2039E0002B2F18BF2D2F0DF1080A08D18DF8087021464846FFF796FC0DF1090A0746002653
:203A0000302F4FF00A0818D121464846FFF78AFC074647F02000C0B2782840F0E680302000
:203A20000AF8010B214678200AF8010B4FF010084846FFF777FC0746D8E047F02000C0B24F
:203A40006E285BD10AF8010B21464846FFF76AFC074647F02000C0B26128A84640F0DC812B
:203A60000AF8010B21464846FFF75CFC074647F02000C0B26E2840F0CF8121464846FFF7DE
:203A800051FC0246282A19D021464846FFF75BFC6E200AF8010B00208AF80000207F00280F
:203AA00040F0F281B8F10B0F80F2C7812A46002102A801F079F8CDE90001C9E1E168206916
:203AC000491C401E00282061E16004D4206801220021C84701E04FF0FF30A0F161010746F7
:203AE0001A2921BFA0F141011A2930380A28E5D35F2FE3D0292F40F08F81C9E7692840F0F1
:203B000087800AF8010B21464846FFF70BFC074647F02000C0B26E28A84640F07D810AF8D4
:203B2000010B21464846FFF7FDFB074647F02000C0B2662840F0708121464846FFF7F2FBF9
:203B400040F02001C9B2692906D0024621464846FFF7F9FB66209CE721464846FFF7E2FB39
:203B6000074647F02000C0B26E2840F0558121464846FFF7D7FB074647F02000C0B269282F
:203B800040F04A81E1682069491C401E00282061E16005D4206801220021C847074601E0C9
:203BA0004FF0FF3747F02000C0B2742840F03481E1682069491C401E00282061E16005D4EE
:203BC000206801220021C847074601E04FF0FF3747F02000C0B2792840F01E81662058E769
:203BE000206801220021C84707460126302F0BD12069411EE0682161401C0029E060EFD500
:203C00004FF0FF37012600E016B130200AF8010BAB4605E0206801220021C84707460126DE
:203C200017F1010F3AD0F8B26128A8BF573809DA4128A8BF373805DAA0F130010A2934BF50
:203C40003038FF20C0B2404513D2BBF1240FBABF0AF8017B0BF1010B6D1C2069411EE0686A
:203C60002161401C0029E060D4D54FF0FF37012614E02E2F12D12E200AF8010BE168206956
:203C8000491C401E00282061E16005D4206801220021C847074601E04FF0FF37BBF1000F65
:203CA00021D105E0206801220021C84707460126302F0BD120696D1E411EE0682161401C0A
:203CC0000029E060EED54FF0FF370126002D0AD530200AF8010B6D1C05E020680122002178
:203CE000C8470746012617F1010F24D0F8B26128A8BF573809DA4128A8BF373805DAA0F17A
:203D000030010A2934BF3038FF20C0B2404512D2BBF1240FBCBF0AF8017B0BF1010B206981
:203D2000411EE0682161401C0029E060D5D54FF0FF37012601E0002E6ED0B8F10A0F02BF7F
:203D400047F02001C9B2652907D0B8F10A0F63D047F02000C0B270285ED10AF8017B20699F
:203D6000401E206111D4E068401CE060012220680021C84707462B2F18BF2D2F13D10AF800
:203D8000017B2069401E206105D5E068401CE0604FF0FF3707E0E068401CE0600122206896
:203DA0000021C8470746002605E0206801220021C84707460126302F0BD12069411EE068C1
:203DC0002161401C0029E060EFD54FF0FF37012600E016B130200AF8010B4FF0000B02E00B
:203DE0004FF0FF370126A7F130000A2814D2BBF1080FBCBF0AF8017B0BF1010B2069411E9B
:203E0000E0682161401C0029E060E9D4206801220021C8470746E5E73A4621464846FFF7F7
:203E200092FA002E7FF437AE02A882450ABF17F1010F00204FF0FF3027E00022002102A89C
:203E400000F0B2FECDE90001A90000A800F0AEFE0120A077607F6C2802D16068606003E035
:203E60004C286068606007D150F8041B6060DDE90023C1E9002307E050F8045B6060DDE97D
:203E8000000100F05DFC2860012013B0BDE8F08F686A6C747A4C000063436E5B0000000061
:203EA0002F480068000EC0B2704780B500F00AF82C49096811F00F0201000800D0402A4941
:203EC000086002BD80B52948006810F47050B0F5006F0BD0B0F5805F05D0B0F5005F08D1C4
:203EE0002348006833E04FF4004030E0214800682DE02148006810F4E06000281ED0B0F59B
:203F0000807F13D0B0F5007F0ED0B0F5407F09D0B0F5806F04D0B0F5A06F17D1174816E027
:203F2000174814E0174812E0174810E0FFF7B8FF132801DB154800E0154808E0FFF7B0FFA3
:203F4000132801DB134800E0134800E0002002BD70474FF400407047054800687047000098
:203F6000FC81E00F04800C40F80E00202C800C4074000020700000200C800C40003FAB0100
:203F8000406F4001809FD500C0D8A70040B56400C0CF6A00804F120040420F0080B5FFF70F
:203FA00084FF01BD002048490860704745F60E0045490860704710B54348006810F001043D
:203FC000FFF7F4FF4148008810F4AA70404908603E48008810F47050B0F5006F16D0B0F567
:203FE000805F03D0B0F5005F08D017E0394800680006FBD50320384908600FE0354800689D
:204000008005FBD504203449086007E0314800680007FBD5022030490860FFE72B480078CF
:20402000C00702D402202A490860002C01D0FFF7B9FF10BD2948006810F03F0000022849E3
:20404000096811F0F001084326490968C1F30311084380B2B0F5827F01DA012000E00020EB
:20406000C0B270471CB504001A480068174908801D48006850F004001B490860FFF7DAFFE4
:20408000C0B2002807D019490968194A114000910099184A116030BFC0B2002802D0009838
:2040A00012490860E4B2002C02D0FFF784FF05E006480088400501D4FFF770FF13BD0548D9
:2040C000006802490880704784800C40180F002020800C402C800C4024800C40E0FF0FE0B5
:2040E000E8FF0FE0ECFF0FE010ED00E000E100E0DCFC03F280E100E013F0004C03D55B42A0
:20410000524263F100039CEA210C00F0178010B5644603D34942404261F1000100F00EF8DF
:20412000640004D34942404261F10001244203D55B42524263F1000310BD00001B4213D110
:20414000094236D12AB18446B0FBF2F002FB10C2704700F0B3BDFCD30022002370470B001F
:204160000200002100207047904271EB030CF6D370B5B1FA81F4B3FA83F52C1BA340C4F1F6
:20418000200532FA05F63343A2405FF00046E64002E05B085FEA3202841A71EB030524BF19
:2041A000204629467641F4D302000B003000002170BD012ACFD970B5140C20D0B1FA81F4F9
:2041C000B2FA82F5C4F120046419B4F12006D6D3B2405FF00044F440002502E052085FEA8F
:2041E0003303C61A71EB020E24BF3046714664416D41F3D302000B002000290070BD0C463F
:20420000B1FBF2F102FB11452D0445EA1045B5FBF2F402FB145580B240EA0545B5FBF2F0D3
:2042200002FB105240EA044070BD0000C9B2830706D0521E22D310F8013B9942F7D11FE05E
:20424000083A13D302F1040241EA012141EA014150F8043B121F21BF4B40A3F1013C2CEA79
:20426000030C1CF0803FF3D0C9B2001F083210F8013B521E28BF91EA030FF8D818BF0120DD
:20428000401E7047014800F01ABD00007C0000200300002013F0030F09D0521E22BF13F8F0
:2042A000010B11F801CBB0EB0C00F3D07047121F22BF53F8040B51F804CB6045F7D0121DDD
:2042C0000AD200BA9CFA8CFCB0EB0C0038BF6FF0000088BF01207047521E22BF13F8010BA6
:2042E00011F801CBB0EB0C00F6D0521C08BF1046704700005FF0FF0C1CEAD05114BF614540
:2043000006E0C110400721F0E04101F16051704779B900F0004100020AD0B0FA80FC00FAB4
:204320000CF001F16051A1EB0C5101EBD0214005704741020CBF40F4E0016FF00001002079
:20434000704700002DE9F04140F2FF7581EA030C0CF0004C15EA11541DBF15EA1357AC4260
:20436000AF42E9E0BC41C1F31301C3F31303801A994143F4801304D2641E400049418018FA
:204380005941C90241EA5051B1FBF3F603FB1611A2FB0675D7EBC020A94102D2761E80188E
:2043A0005941C90241EA5051B1FBF3FE03FB1E11A2FB0E75D7EBC020A94103D2AEF1010ED3
:2043C00080185941890241EA9051760546EA8E2EB1FBF3F603FB1611A2FB0675D7EB802079
:2043E000A94102D2761E80185941C90241EA50514EEA060EB1FBF3F603FB1611A2FB067584
:20440000D7EBC020A94102D2761E80185941C90241EA5051B1FBF3F703FB1711A2FB07354A
:20442000D3EBC020A94167F100070CBF004247F0010766F3D5274FEA1E31B80814F58064BF
:2044400014DDBD0775F1004250EB0E5051EB045111F5801F5CBF41EA0C01BDE8F0814CF08B
:204460007F6141F0E0410020BDE8F081BD076D0840EA0E5041F48011D4F10104B4F12006B8
:204480000ADAC4F120060200E04001FA06F3E1401843B24015430EE0342C14DCC6F1200468
:2044A00045EA40056D0820FA06F2154321FA06F0A1400D43002175F1004250F1000051EB21
:2044C0000C01BDE8F08100205FEA0C01BDE8F081CFB992185B41B3FA83F704BFB2FA82F651
:2044E000BF190B3FB7F120062FBF02FA06F3BB40C7F1200622FA06F638BF3343BA401CB1C4
:20450000E419641E2FE77F4231F00041B1FA81F404BFB0FA80F6A4190B3CB4F120062FBF23
:2045200000FA06F1A140C4F1200620FA06F638BF3143A0403C1B16E7AC421ABF05EA1357F9
:20454000AF4214E050EA41061CBF52EA4306BFE750EA4107304661461CBF41EA0551BDE84F
:20456000F08152EA430C08BFC143BDE8F08100204FF4001616EB410F98BF16EB430F08BF23
:2045800016EB410F24BFC14305E016EB430F0CBF61464CEA0551BDE8F0810000B0B581EAC7
:2045A000030C0CF0004C40F2FF7515EA11541DBF15EA1357AC42AF4239E0E41923EA4553BB
:2045C00043F48013C90241F0004141EA505EC7021100A7FB020200284FF00000EEFB01200A
:2045E0004FF00001E3FB072118BF42F00102401800214941E3FB0E01A4F580640F0302D216
:2046000052004041494154F101046CDD470872F1004250F1000051EB0451A1F580115CBFA2
:2046200041EA0C01B0BD4CEA05510020B0BD05EA1357AC4214BFAF4241E050EA410E1CBF2C
:2046400052EA430E02E061460020B0BD24423C441BD15FEA070EF6D0090302BF014600208D
:20466000AEF1140EB1FA81F7AEEB070401FA07FE0C37C7F1200100FA07F7C8404EEA000E50
:2046800023EA455343F48013A2E733F00043B3FA83F704BFB2FA82FE77440B3FE41BB7F1FA
:2046A000200E2FBF02FA0EF3BB40C7F1200E22FA0EFE38BF43EA0E03BA40641C82E750EA86
:2046C000410E14BF52EA430E6FF000014FF4001717EB430F8ABF194617EB410FB5E74CEA51
:2046E00005510020B0BDD4F10104B4F120070FDAC4F12007520828BF42F0010210FA07F500
:2047000001FA07F7E1BF2A43E0403843E1400FE0352C98DCC7F1200452EA400220FA07F2A6
:2047200018BF42F0010231FA07F0A1400A43002172F1004250F1000051EB0C01B0BD000060
:204740004FEAF17CBCF1E04C2CBFBCF5001F11E05FEA4C0C34BFBCF17F5F2EE05FEA9C0C10
:204760004FEA0C1C4FEA3C0CC10071F100414CEB50707047C90241EA5051C00218BF41F0E4
:20478000010141F000414FEA6C50C0F10900212810D240EACC7CCCF1200C11FA0CF070F108
:2047A0000040CCF1200C21FA0CF00CF0004C40EB0C0070474FEACC707047490011F5001FE9
:2047C00004D84FEACC10FF30C0057047C817704740000DD2010E7F390AD4D1F11F0104D429
:2047E000C00140F00040C84070477FF000007047002070470278C9B28A421AB11CBF10F85D
:20480000012FF9E718BF002070472DE9F04182B080460E001D4608BF00AE474600E07F1CAD
:204820003878A0F109010529F9D32028F7D02D2816BF2B2817F8014B2B243146384600F018
:2048400035F83268974208BFC6F80080326890451DD1002908BF002807D12D2C1DD1B1F17D
:20486000004F1CD301D8012819D3FFF70BFD222101600DB1012028602D2C19BF4FF0FF3064
:204880006FF0004100204FF00041BDE8FC812B2CE3D14FF000439942E7D2BDE8FC814042F1
:2048A00061EB4101BDE8FC810023AEE72DE9F84F86B083460F4615460BB1002018605E468C
:2048C00000E0761C3078A0F109010529F9D32028F7D02D2816BF2B2816F801AB4FF02B0A6F
:2048E000002D55D4012D53D0252D51DA012D0ADB102D04BF3078302802BF707840F0200088
:2049000078280ED10AE03078302818BF0A2508D1707840F02000782802D11025B61C00E0BD
:204920000825039600E0761C30783028FBD00024A046CDE904480FF2D800029600948DF8DE
:2049400004004FEAE57913E09DF80410401AC0B20090CDE9044800AAA5FB040105FB08115A
:20496000127809FB04110023841841EB0308761C3178A1F141001A2838BF20312A460FF295
:204980009000FFF753FC0028DED10398B04205D10FB1C7F800B00020002134E00FF29801EA
:2049A0000298695C301A401A23D4012814DA00A800210078201A68EB010188450CD301D891
:2049C000844209D32A46EB17FFF7B8FBDDE90423994208BF90420CD0FFF754FC22210160F3
:2049E000069810B10699012008604FF0FF34A04605E0BAF12D0F02D1644268EB480807B138
:204A00003E602046414607B0BDE8F08F00234DE73031323334353637383961626364656677
:204A20006768696A6B6C6D6E6F707172737475767778797A0000000000004129211C1917D5
:204A40001615141312121111111010100F0F0F0F0E0E0E0E0E0E0E0D0D0D0D0D0D00000091
:204A60002DE9F14D87B005460C4690469A4607A800F026F98346BAF1000F1CBF0021CAF859
:204A8000001020F00800012834D10220009004AB07992246284600F0A3F9040003D1002065
:204AA000CDE902001DE0059800F074FACDE90201022C16DB06AE671E384DDDE902010022C5
:204AC0002B46FFF76BFDCDE9000156F8040B00F061FADDE9002300F073FACDE902017F1E0C
:204AE000EBD1049800EB0802DDE90201534600F004FB42E0022835D1009004AB079922467F
:204B0000284600F0D1FB040003D10020CDE902001DE0059800F03EFACDE90201022C16DB21
:204B200006AE671E1E4DDDE9020100222B46FFF735FDCDE9000156F8040B00F02BFADDE95E
:204B4000002300F03DFACDE902017F1EEBD1049902A800F02BF8DDE902015346424600F0C5
:204B6000CCFA0AE0032802D100200E4905E0042806D14FF0FF306FF00041CDE9020102E07F
:204B80000020CDE902005FEA0B70DDE9020148BF81F0004108B0BDE8F08D000065CDCD41DD
:204BA0000000B0410000F07F002359E770B504460D466068C0F30A5040F2FF71884207D157
:204BC0006068000304BF2068002817D0022070BD20B9204600F068FC012868DA012D0FDB4B
:204BE00040F2FF71091A8D420AD36068002847BF0020304900203049C4E90001012070BD20
:204C00004142A942616806DA6FF31E51401941EA0050606042E0401E63684519012205F156
:204C2000350062F31F53352801F00041636003D361600020206070BD002215F11F0F04DA8E
:204C400022682360002020356060684214D0521E25689241C0F12003D2439D4045EAD2727B
:204C6000256825FA00F6656805FA03F333432360636823FA00F5656060680843B2F1004F30
:204C8000606003D80DD12078C0070AD52068401C2060206828B96068401C60604FF0FF303E
:204CA00070BD6068884204BF20680028F6D1002070BD00BF0000F0FF0000F07F7047704723
:204CC00070B402681346002400E05B1C1D78A5F10906052EF9D3202DF7D02D2D0CBF0824D4
:204CE0002B2D00D15B1C1D7845F020066E2E26D15C7844F02004612C02BF9C7844F02004AB
:204D00006E2C02D01346002246E0DB1C1C4604222578282D40D114F8015FA5F161061A2E53
:204D2000F9D3A5F141061A2E24BF303D0A2DF2D325785F2DEFD0292D2ED1631C2CE0692ED7
:204D40002DD15D7845F020056E2D02BF9D7845F02005662D02D0134600221DE044F0030245
:204D600013F8034F44F02004692C02BF5C7844F020046E2C10D19C7844F02004692C02BFBF
:204D8000DC7844F02004742C06D11C1D257845F02005792D08BF631CF1B10B601CE0302D6E
:204DA00002BF597841F02001782913D1991C0A782E2A08BF491C0978A1F16102062A21BF49
:204DC000A1F14102062A30390A2903D29B1C44F0020201E044F001020360104670BC7047BA
:204DE0002DE9F0478CB00D4614998046002001EBC1012E29A8BF2D2100261E605E6001E047
:204E00006D1C01262F78302FFAD000270DF1000C04E01E68761C1E606D1C012695F800E04A
:204E2000AEF130040A2C07D2B942F2DBAEF1300607F80C607F1CEFE7BEF12E0F08BF6D1CDB
:204E400047B904E01E68761E1E606D1C01262C78302CF7D02C78A4F1300EBEF10A0F0CD242
:204E6000B94207DBA4F1300600AC3E557F1C1E68761E1E606D1C0126ECE7B94218DA00AFF9
:204E8000CF5D052F06DB00AFCF1917F8014C641C07F8014C0F461968491C196008E000A9CD
:204EA000791811F8011C49B91968491C19607F1E012FF4DA17B98DF800000127002E5ED066
:204EC0004FF0090E97FBFEFEC7F1090C0EEBCE0EE6444FF0090C9EFBFCFC00210CEBCC0455
:204EE000BEEB04040ED001200CE053F8204011F80CC004EB84040CEB440443F820400EF146
:204F0000010E491CB9420DDA09249EFBF4F404EBC404BEEB04040DF1000CE6D111F80C400F
:204F2000401CEAE7297841F02001652927D1294615F8017FDFF858C02B2F16BF2D2F15F848
:204F4000017B2B270024A64609E0E64505DA0EEB8E0409EB4404A4F1300E6D1C012495F8AB
:204F60000090A9F1300ABAF10A0FEED32D2F1F6808BFCEF1000E77441F6004B90D461AB1BC
:204F800006B1A846C2F800800CB0BDE8F08700BF00E1F505010040F10780F446404200F05B
:204FA00003F851F00041604709D0B0FA80F18840C91CC1F58461090501EBD02140057047AA
:204FC000F0B44FF0004591EA030C44BF6B4000F08DBA00BF841A71EB030603D2001BB14196
:204FE000121973414FF4001C1CEB410F34BF7CEB430443E00C0DA4EB1356352E50DC45EA89
:20500000C323DB0A45EAC121C912B6F120050DDD63FA05F6EB4086EA0305124218BF45F0C8
:205020000105C01851F100010CD213E062FA06F5F2405540F3415A40B340F3405A4080183A
:20504000594107D349085FEA30005FEA350528BF45F0010501F58011420875F1004250F1B3
:20506000000041EB0451F0BC4FF4001C1CEB410F38BF70470020090D090570471CEB410F4D
:2050800010D252EA43060BD0BCEB410F05D80C0DAB43661E342EB5DD02E0AB438018594179
:2050A000F0BC7047F0BC7047F8B5064640F2FF717068C0F30A50884214461D4606D0012824
:2050C00006DA304600F0F0F9012801DB002706E0726840F2FE3161F31E527260471AD6E99E
:2050E000000122462B46FFF759FAC6E9000139B23046BDE8F440FFF759BD2DE9FB4516002B
:2051000082B09A4600F09A80DDE902230020002100F0A2FA00F092800024002E4A4D43D5B8
:2051200076420FF23C174FF008080DE0F00707D5D7E9002320462946FFF730FA04460D46DF
:2051400076080837A8F10108002E18BFB8F1000FECD102A900A800F08FFADDE90201224679
:205160002B46FFF7EFF8CDE90201BDF9001002A8FFF71CFD070050D5002E50D002A900A8DC
:2051800000F07AFADDE90201304A314BFFF706FACDE90201BDF9001002A8FFF707FD0700CC
:2051A0003BD5761EEAD13AE0012E36DB0FF2B0074FF00808F00707D5D7E9002320462946A4
:2051C000FFF7ECF904460D4676100837012EA8F1010802DBB8F1000FECD122462B4602A8EC
:2051E000FFF762FF070018D5012E18DB02A900A800F042FADDE90201164A174BFFF7CEF97B
:20520000CDE90201BDF9001002A8FFF7CFFC070003D5761E012EE9DA01E03FB20FB1012F7D
:205220000CD1FFF72FF82221BAF1000F016005D0DAF8000040F00100CAF80000DDE90201B3
:2052400005B0BDE8F08500000000F03F436FAC642806C80A3CBF737FDD4F157500000000EB
:2052600000000000000024400000000000005940000000000088C3400000000084D7974173
:205280000080E03779C34143176E05B5B5B89346F5F93FE9034F384D321D30F94877825A32
:2052A0003CBF737FDD4F15752DE9F54F8BB01C4616980025C0EBC008B8F1240FA8BF4FF08C
:2052C000230825600E466560002701E0761C012730783028FAD00FF2A01AA946CDF800A06A
:2052E0000DF1040B04E02068401C2060761C0127317816225046FEF799FF58B1C845F2DBB8
:20530000009A0FF28C11801A405C09F80B0009F10109EBE730782E2808BF761CB9F1000F2D
:2053200008D104E02068401E2060761C012730783028F7D0317816225046FEF777FF88B1AE
:20534000C8450CDB0FF24811A0EB0A00405C01A909F8010009F101092068401E2060761C26
:205360000127E7E7C8451ADA01A818F80000082806DB01A8404410F8011C491C00F8011CA0
:20538000C1462068401C206009E001A8484410F8010C70B92068401C2060A9F10109B9F194
:2053A000010FF2DAB9F1000F04BF8DF804504FF0010920688000002F206052D0072299FBDD
:2053C000F2F2C9F10701C2EBC2025118072291FBF2F20020C2EBC2028A1A05D0012503E0A1
:2053E00044F82520491C401C48450EDA072391FBF3F310F80B20C3EBC303CB1A0EBF6D1C78
:2054000054F8253002EB0312EAE7307840F02000702826D1304616F8011FDFF858C02B29AA
:2054200016BF2D2916F8011B2B210022002309E0634505DA03EB83020EEB4202A2F13003A0
:20544000761C012296F800E0AEF13008B8F10A0FEED32D29216808BF5B425918216002B9DF
:2054600006460C9810B107B90B9E066028460DB0BDE8F08F00E1F5053031323334353637E6
:2054800038396162636465664142434445460000000102030405060708090A0B0C0D0E0F39
:2054A0000A0B0C0D0E0F000030B4436803F0004201211B031B0B436004BF0368002B08D1A2
:2054C0000DE00368DD0F45EA440444605B000360491E4468E302F4D523031B0B4360436854
:2054E0001A434260084630BC70470000841A71EB030604D26E40001BB141121973414FF406
:20550000001C1CEB410F34BF7CEB430684E00C0DA4EB1356362E7DDC012E43DC45EAC323E0
:2055200043EA525312BFD20292025B08240545EAC12141EA5051D2EBC020994125D407D1AF
:20554000B0FA80F610FA06F164D00020203608E0B1FA81F6B140C6F1200220FA02F211434A
:20556000B0404FEAF474B4EB465434F001064FEA74040AD8D6F50016760D04F00044F040D7
:2055800061FA06F25040F1404840C00A40EA415021F0004128BF5FEA500550F1000044EBA3
:2055A000D12137E045EAC323DB0A45EAC121C90AB6F120050EDD42EA0242120CC5F12006E3
:2055C00003FA06F6EB4042EA06056D42984161F100010DE062FA06F5F240554063FA06FC2B
:2055E00082EA0C02F3405A406D42904161EB030111F4801F05D1641E620502D06D00404171
:20560000494121F48011430875F1004350F1000041EB0451F0BC70471CEB410F15D223F0F0
:20562000004352EA43060BD04FEA4C0CBCEB410F04D80C0D661E342EB7DDEBE7801A99418A
:2056400050EA410608BF0021E4E708BF1CEB430F28BF6FF00001DDE790420CD141EA030C02
:2056600050EA4C0C07D0994205D14FF4001C1CEB410F38BF8942704738B50C46054660688F
:20568000C0F30A5040F2FF7188420BD1002028806068000304BF2068002801D0022032BDCD
:2056A000012032BD012804DA2046FFF7FDFE01280ADA626840F2FE3161F31E526260401A64
:2056C00028804FF0FF3032BD0020288032BD000000000000B71DC1046E3B8209D926430DF2
:2056E000DC7604136B6BC517B24D861A0550471EB8ED08260FF0C922D6D68A2F61CB4B2B72
:20570000649B0C35D386CD310AA08E3CBDBD4F3870DB114CC7C6D0481EE09345A9FD524121
:20572000ACAD155F1BB0D45BC2969756758B5652C836196A7F2BD86EA60D9B6311105A67B1
:2057400014401D79A35DDC7D7A7B9F70CD665E74E0B6239857ABE29C8E8DA1913990609521
:205760003CC0278B8BDDE68F52FBA582E5E66486585B2BBEEF46EABA3660A9B7817D68B3F1
:20578000842D2FAD3330EEA9EA16ADA45D0B6CA0906D32D42770F3D0FE56B0DD494B71D9A1
:2057A0004C1B36C7FB06F7C32220B4CE953D75CA28803AF29F9DFBF646BBB8FBF1A679FF31
:2057C000F4F63EE143EBFFE59ACDBCE82DD07DEC77708634C06D4730194B043DAE56C53951
:2057E000AB0682271C1B4323C53D002E7220C12ACF9D8E1278804F16A1A60C1B16BBCD1F71
:2058000013EB8A01A4F64B057DD00808CACDC90C07AB9778B0B6567C69901571DE8DD47520
:20582000DBDD936B6CC0526FB5E6116202FBD066BF469F5E085B5E5AD17D1D576660DC53B0
:2058400063309B4DD42D5A490D0B1944BA16D84097C6A5AC20DB64A8F9FD27A54EE0E6A1A0
:205860004BB0A1BFFCAD60BB258B23B69296E2B22F2BAD8A98366C8E41102F83F60DEE87F0
:20588000F35DA9994440689D9D662B902A7BEA94E71DB4E0500075E4892636E93E3BF7EDA0
:2058A0003B6BB0F38C7671F7555032FAE24DF3FE5FF0BCC6E8ED7DC231CB3ECF86D6FFCB30
:2058C0008386B8D5349B79D1EDBD3ADC5AA0FBD8EEE00C6959FDCD6D80DB8E6037C64F64C0
:2058E0003296087A858BC97E5CAD8A73EBB04B77560D044FE110C54B383686468F2B474270
:205900008A7B005C3D66C158E4408255535D43519E3B1D252926DC21F0009F2C471D5E281F
:20592000424D1936F550D8322C769B3F9B6B5A3B26D6150391CBD40748ED970AFFF0560EAF
:20594000FAA011104DBDD014949B93192386521D0E562FF1B94BEEF5606DADF8D7706CFC1F
:20596000D2202BE2653DEAE6BC1BA9EB0B0668EFB6BB27D701A6E6D3D880A5DE6F9D64DAEF
:205980006ACD23C4DDD0E2C004F6A1CDB3EB60C97E8D3EBDC990FFB910B6BCB4A7AB7DB09F
:2059A000A2FB3AAE15E6FBAACCC0B8A77BDD79A3C660369B717DF79FA85BB4921F4675962F
:2059C0001A163288AD0BF38C742DB081C330718599908A5D2E8D4B59F7AB085440B6C9506F
:2059E00045E68E4EF2FB4F4A2BDD0C479CC0CD43217D827B9660437F4F460072F85BC1766F
:205A0000FD0B86684A16476C93300461242DC565E94B9B115E565A1587701918306DD81C1E
:205A2000353D9F0282205E065B061D0BEC1BDC0F51A69337E6BB52333F9D113E8880D03AAE
:205A40008DD097243ACD5620E3EB152D54F6D4297926A9C5CE3B68C1171D2BCCA000EAC89E
:205A6000A550ADD6124D6CD2CB6B2FDF7C76EEDBC1CBA1E376D660E7AFF023EA18EDE2EEEE
:205A80001DBDA5F0AAA064F4738627F9C49BE6FD09FDB889BEE0798D67C63A80D0DBFB849E
:205AA000D58BBC9A62967D9EBBB03E930CADFF97B110B0AF060D71ABDF2B32A66836F3A22E
:205AC0006D66B4BCDA7B75B8035D36B5B440F7B12DE9F041DFF884000468DFF88400006849
:205AE0000440002C00D5FEE7DFF87800056815EA0407002602E034EA0507761C022E29DABF
:205B00005FF0000808E000215A68C9B240461B6898477F0818F10108002FECD0F807F8D5B0
:205B2000DFF834000068012111FA08F1DFF83820116010EB0810C368002BEAD0187A197AE4
:205B400091F00101197219680029E2D00028DAD00121D9E7BDE8F08108200C4000300C4021
:205B60000C300C4038200C4008300C4080B5FEF7EFF900F022F801BDFEE7FEE7FEE7FEE707
:205B8000FEE7FEE7FEE7FEE7FEE7FEE7FEE7FEE7FEE7FEE7FEE7FEE7FEE7FEE7FEE7FEE7B5
:205BA000FEE7FEE7FEE7FEE7FEE7FEE7FEE7FEE7FEE7FEE7FEE7FEE7FEE7C046C046C04632
:205BC000C04600F001F8000000F00BF8002801D000F00AF80020C046C046FBF7CBF800F027
:205BE00017F801207047000010B5074979441831064C7C44163404E00A68081D5118884794
:205C00000146A142F8D110BDAC000000CC00000000F000B80746384600F002F8FBE700000D
:205C200080B5C046C046024A11001820ABBEFBE72600020057656C636F6D6520746F204EDE
:205C40007761766520636F6E736F6C65210A496E70757420616E20415420636F6D6D616E04
:205C6000643A0A0010B450F8041B79B10268436812180830DC0744BFA9F10104E31852F8E6
:205C8000044B43F8044B091FF9D1ECE710BC704741545A206973206E6F7420737570706F30
:205CA000727465642C207573652041542B465245513D0A00D7B0FFFFA40E0000840000206C
:205CC00000000000A1FFFFFF840000008C00000000000020000000004D435520697320678E
:205CE0006F696E6720746F2052657365742E2E2E0A000000467265714C6F773A2564204654
:205D0000726571486967683A25640A000000000102030405060708090A0B0B0C0C0D0D0E61
:205D20000E000000050000000000000080250000000000004572726F720A00002530387892
:205D400000000000020000000F00000000000A0000000A0000000A00134A126852F00102F8
:205D6000114B1A60114A10600120114A10601148016008200E4908600F480068C007FBD4A0
:205D800070470949096851F00101074A1160074908600120064908600220054908600648CE
:205DA0000068C007FBD4704708000C4010000C400C000C4018000C401C000C40CAFEBEEFE5
:1C5DC000FEEDBABE640000200048E80100800000CCDDEE00000000000100000097
:00000001FF
